{
  "contractName": "VoteProposal",
  "abi": [
    {
      "constant": true,
      "inputs": [
        {
          "name": "",
          "type": "uint256"
        }
      ],
      "name": "proposals",
      "outputs": [
        {
          "name": "voteCount",
          "type": "uint256"
        },
        {
          "name": "initiator",
          "type": "address"
        }
      ],
      "payable": false,
      "stateMutability": "view",
      "type": "function"
    },
    {
      "constant": true,
      "inputs": [],
      "name": "dotTokenContract",
      "outputs": [
        {
          "name": "",
          "type": "address"
        }
      ],
      "payable": false,
      "stateMutability": "view",
      "type": "function"
    },
    {
      "constant": true,
      "inputs": [
        {
          "name": "",
          "type": "address"
        }
      ],
      "name": "voters",
      "outputs": [
        {
          "name": "voted",
          "type": "bool"
        },
        {
          "name": "vote",
          "type": "uint8"
        }
      ],
      "payable": false,
      "stateMutability": "view",
      "type": "function"
    },
    {
      "inputs": [
        {
          "name": "dotTokenAddr",
          "type": "address"
        }
      ],
      "payable": false,
      "stateMutability": "nonpayable",
      "type": "constructor"
    },
    {
      "constant": false,
      "inputs": [
        {
          "name": "toProposal",
          "type": "uint8"
        }
      ],
      "name": "vote",
      "outputs": [],
      "payable": false,
      "stateMutability": "nonpayable",
      "type": "function"
    },
    {
      "constant": true,
      "inputs": [],
      "name": "winningProposal",
      "outputs": [
        {
          "name": "_winningProposal",
          "type": "uint8"
        }
      ],
      "payable": false,
      "stateMutability": "view",
      "type": "function"
    }
  ],
  "bytecode": "0x608060405234801561001057600080fd5b506040516020806105ef83398101806040528101908080519060200190929190505050806000806101000a81548173ffffffffffffffffffffffffffffffffffffffff021916908373ffffffffffffffffffffffffffffffffffffffff1602179055505061056c806100836000396000f30060806040526004361061006d576000357c0100000000000000000000000000000000000000000000000000000000900463ffffffff168063013cf08b14610072578063609ff1bd146100e65780638eafd14214610117578063a3ec138d1461016e578063b3f98adc146101d6575b600080fd5b34801561007e57600080fd5b5061009d60048036038101908080359060200190929190505050610206565b604051808381526020018273ffffffffffffffffffffffffffffffffffffffff1673ffffffffffffffffffffffffffffffffffffffff1681526020019250505060405180910390f35b3480156100f257600080fd5b506100fb610259565b604051808260ff1660ff16815260200191505060405180910390f35b34801561012357600080fd5b5061012c6102dd565b604051808273ffffffffffffffffffffffffffffffffffffffff1673ffffffffffffffffffffffffffffffffffffffff16815260200191505060405180910390f35b34801561017a57600080fd5b506101af600480360381019080803573ffffffffffffffffffffffffffffffffffffffff169060200190929190505050610302565b60405180831515151581526020018260ff1660ff1681526020019250505060405180910390f35b3480156101e257600080fd5b50610204600480360381019080803560ff169060200190929190505050610340565b005b60028181548110151561021557fe5b90600052602060002090600202016000915090508060000154908060010160009054906101000a900473ffffffffffffffffffffffffffffffffffffffff16905082565b6000806000809150600090505b6002805490508160ff1610156102d8578160028260ff1681548110151561028957fe5b90600052602060002090600202016000015411156102cb5760028160ff168154811015156102b357fe5b90600052602060002090600202016000015491508092505b8080600101915050610266565b505090565b6000809054906101000a900473ffffffffffffffffffffffffffffffffffffffff1681565b60016020528060005260406000206000915090508060000160009054906101000a900460ff16908060000160019054906101000a900460ff16905082565b60008060006002805490501415151561035857600080fd5b600160003373ffffffffffffffffffffffffffffffffffffffff1673ffffffffffffffffffffffffffffffffffffffff16815260200190815260200160002091508160000160009054906101000a900460ff16806103be57506002805490508360ff1610155b156103c85761053b565b6000809054906101000a900473ffffffffffffffffffffffffffffffffffffffff1673ffffffffffffffffffffffffffffffffffffffff166370a08231336040518263ffffffff167c0100000000000000000000000000000000000000000000000000000000028152600401808273ffffffffffffffffffffffffffffffffffffffff1673ffffffffffffffffffffffffffffffffffffffff168152602001915050602060405180830381600087803b15801561048457600080fd5b505af1158015610498573d6000803e3d6000fd5b505050506040513d60208110156104ae57600080fd5b8101908080519060200190929190505050905060008114156104cf5761053b565b60018260000160006101000a81548160ff021916908315150217905550828260000160016101000a81548160ff021916908360ff1602179055508060028460ff1681548110151561051c57fe5b9060005260206000209060020201600001600082825401925050819055505b5050505600a165627a7a7230582081169bc36f2e84610b39de01de2e08dbb84e844403eef8b3a6c4b5bbfa08c12d0029",
  "source": "pragma solidity ^0.4.24;\n\nimport \"./DotToken.sol\";\n\n\ncontract VoteProposal {\n\n    DotToken public dotTokenContract;\n\n    struct Voter {\n        bool voted;\n        uint8 vote;\n    }\n    \n    struct Proposal {\n        uint voteCount;\n        address initiator;\n    }\n\n    //address chairperson;\n    mapping(address => Voter) public voters;\n    Proposal[] public proposals;\n\n    /// Create a new ballot with $(_numProposals) different proposals.\n    constructor(address dotTokenAddr) public {\n        dotTokenContract = DotToken(dotTokenAddr);\n    }\n\n    /// Give a single vote to proposal $(toProposal).\n    function vote(uint8 toProposal) public {\n        // There is no proposal to vote.\n        require(proposals.length != 0);\n        \n        Voter storage sender = voters[msg.sender];\n        if (sender.voted || toProposal >= proposals.length) return;\n        \n        uint balance = dotTokenContract.balanceOf(msg.sender);\n        //No right to vote if voter has no balance.\n        if (balance == 0) return;\n        \n        sender.voted = true;\n        sender.vote = toProposal;\n        proposals[toProposal].voteCount += balance;\n    }\n\n    function winningProposal() public constant returns (uint8 _winningProposal) {\n        uint256 winningVoteCount = 0;\n        for (uint8 prop = 0; prop < proposals.length; prop++)\n            if (proposals[prop].voteCount > winningVoteCount) {\n                winningVoteCount = proposals[prop].voteCount;\n                _winningProposal = prop;\n            }\n    }\n}",
  "sourcePath": "/Users/jiangsharu/Projects/voting/app/contracts/VoteProposal.sol",
  "compiler": {
    "name": "solc",
    "version": "0.4.24+commit.e67f0147.Emscripten.clang"
  },
  "schemaVersion": "2.0.1",
  "updatedAt": "2018-10-27T06:22:22.738Z"
}