{
  "contractName": "VoteProposal",
  "abi": [
    {
      "constant": true,
      "inputs": [
        {
          "name": "",
          "type": "uint256"
        }
      ],
      "name": "proposals",
      "outputs": [
        {
          "name": "",
          "type": "uint256"
        }
      ],
      "payable": false,
      "stateMutability": "view",
      "type": "function"
    },
    {
      "constant": true,
      "inputs": [
        {
          "name": "",
          "type": "address"
        }
      ],
      "name": "voters",
      "outputs": [
        {
          "name": "voted",
          "type": "bool"
        },
        {
          "name": "vote",
          "type": "uint8"
        }
      ],
      "payable": false,
      "stateMutability": "view",
      "type": "function"
    },
    {
      "inputs": [],
      "payable": false,
      "stateMutability": "nonpayable",
      "type": "constructor"
    },
    {
      "constant": false,
      "inputs": [
        {
          "name": "toProposal",
          "type": "uint8"
        }
      ],
      "name": "vote",
      "outputs": [],
      "payable": false,
      "stateMutability": "nonpayable",
      "type": "function"
    },
    {
      "constant": true,
      "inputs": [],
      "name": "winningProposal",
      "outputs": [
        {
          "name": "_winningProposal",
          "type": "uint8"
        }
      ],
      "payable": false,
      "stateMutability": "view",
      "type": "function"
    },
    {
      "constant": true,
      "inputs": [
        {
          "name": "_proposalId",
          "type": "uint256"
        }
      ],
      "name": "getVoteCount",
      "outputs": [
        {
          "name": "",
          "type": "uint256"
        }
      ],
      "payable": false,
      "stateMutability": "view",
      "type": "function"
    },
    {
      "constant": true,
      "inputs": [],
      "name": "getProposals",
      "outputs": [
        {
          "name": "",
          "type": "uint256[16]"
        }
      ],
      "payable": false,
      "stateMutability": "view",
      "type": "function"
    },
    {
      "constant": true,
      "inputs": [],
      "name": "alreadyVoted",
      "outputs": [
        {
          "name": "",
          "type": "bool"
        }
      ],
      "payable": false,
      "stateMutability": "view",
      "type": "function"
    }
  ],
  "bytecode": "0x608060405234801561001057600080fd5b506104f4806100206000396000f300608060405260043610610083576000357c0100000000000000000000000000000000000000000000000000000000900463ffffffff168063013cf08b1461008857806317b5ed11146100c9578063609ff1bd146100f857806362564c4814610129578063a3ec138d1461017c578063b2c2f2e8146101e4578063b3f98adc14610225575b600080fd5b34801561009457600080fd5b506100b360048036038101908080359060200190929190505050610255565b6040518082815260200191505060405180910390f35b3480156100d557600080fd5b506100de61026f565b604051808215151515815260200191505060405180910390f35b34801561010457600080fd5b5061010d6102c5565b604051808260ff1660ff16815260200191505060405180910390f35b34801561013557600080fd5b5061013e610325565b6040518082601060200280838360005b8381101561016957808201518184015260208101905061014e565b5050505090500191505060405180910390f35b34801561018857600080fd5b506101bd600480360381019080803573ffffffffffffffffffffffffffffffffffffffff169060200190929190505050610370565b60405180831515151581526020018260ff1660ff1681526020019250505060405180910390f35b3480156101f057600080fd5b5061020f600480360381019080803590602001909291905050506103ae565b6040518082815260200191505060405180910390f35b34801561023157600080fd5b50610253600480360381019080803560ff1690602001909291905050506103d7565b005b60018160108110151561026457fe5b016000915090505481565b60008060003373ffffffffffffffffffffffffffffffffffffffff1673ffffffffffffffffffffffffffffffffffffffff16815260200190815260200160002060000160009054906101000a900460ff16905090565b6000806000809150600090505b60108160ff161015610320578160018260ff166010811015156102f157fe5b015411156103135760018160ff1660108110151561030b57fe5b015491508092505b80806001019150506102d2565b505090565b61032d6104a4565b6001601080602002604051908101604052809291908260108015610366576020028201915b815481526020019060010190808311610352575b5050505050905090565b60006020528060005260406000206000915090508060000160009054906101000a900460ff16908060000160019054906101000a900460ff16905082565b60006010821015156103bf57600080fd5b6001826010811015156103ce57fe5b01549050919050565b60008060003373ffffffffffffffffffffffffffffffffffffffff1673ffffffffffffffffffffffffffffffffffffffff16815260200190815260200160002090508060000160009054906101000a900460ff168061043a575060108260ff1610155b15610444576104a0565b60018160000160006101000a81548160ff021916908315150217905550818160000160016101000a81548160ff021916908360ff1602179055506001808360ff1660108110151561049157fe5b01600082825401925050819055505b5050565b610200604051908101604052806010906020820280388339808201915050905050905600a165627a7a723058209ba413a22f15eea592fe0ab5c5f3cffbd1fbf02902815be78f6c43bdf3287bd00029",
  "source": "pragma solidity ^0.4.24;\n\n//import \"./DotToken.sol\";\n\n\ncontract VoteProposal {\n\n    //DotToken public dotTokenContract;\n\n    struct Voter {\n        bool voted;\n        uint8 vote;\n    }\n\n    //address chairperson;\n    mapping(address => Voter) public voters;\n    uint256[16] public proposals;\n\n\n    /// Create a new ballot with $(_numProposals) different proposals.\n    /*\n    constructor(address dotTokenAddr) public {\n        dotTokenContract = DotToken(dotTokenAddr);\n    }\n\n\n    /// Give a single vote to proposal $(toProposal).\n    function vote(uint8 toProposal, uint8 weight) public {\n        \n        Voter storage sender = voters[msg.sender];\n        if (sender.voted || toProposal >= proposals.length) return;\n        \n        uint balance = dotTokenContract.balanceOf(msg.sender);\n        //No right to vote if voter has no balance.\n        if (weight < balance) return;\n        \n        sender.voted = true;\n        sender.vote = toProposal;\n        proposals[toProposal] += weight;\n    }\n\n    function winningProposal() public constant returns (uint8 _winningProposal) {\n        uint256 winningVoteCount = 0;\n        for (uint8 prop = 0; prop < proposals.length; prop++)\n            if (proposals[prop] > winningVoteCount) {\n                winningVoteCount = proposals[prop];\n                _winningProposal = prop;\n            }\n    }\n\n    function getProposals() public constant returns (uint256[16]) {\n        return proposals;\n    }\n    */\n\n    constructor() public {}\n\n\n    /// Give a single vote to proposal $(toProposal).\n    function vote(uint8 toProposal) public {\n        \n        Voter storage sender = voters[msg.sender];\n        if (sender.voted || toProposal >= proposals.length) return;\n        \n        sender.voted = true;\n        sender.vote = toProposal;\n        proposals[toProposal] += 1;\n    }\n\n    function winningProposal() public constant returns (uint8 _winningProposal) {\n        uint256 winningVoteCount = 0;\n        for (uint8 proposalId = 0; proposalId < proposals.length; proposalId++)\n            if (proposals[proposalId] > winningVoteCount) {\n                winningVoteCount = proposals[proposalId];\n                _winningProposal = proposalId;\n            }\n    }\n\n    function getVoteCount(uint _proposalId) public constant returns (uint256) {\n        require(_proposalId < proposals.length);\n        return proposals[_proposalId];\n    }\n\n    function getProposals() public constant returns (uint256[16]) {\n        return proposals;\n    }\n\n    function alreadyVoted() public constant returns (bool) {\n        return voters[msg.sender].voted;\n    }\n\n}",
  "sourcePath": "/Users/jiangsharu/Projects/voting/app/contracts/VoteProposal.sol",
  "compiler": {
    "name": "solc",
    "version": "0.4.24+commit.e67f0147.Emscripten.clang"
  },
  "schemaVersion": "2.0.1",
  "updatedAt": "2018-10-28T17:32:50.111Z"
}