{
  "contractName": "VoteProposal",
  "abi": [
    {
      "constant": true,
      "inputs": [
        {
          "name": "",
          "type": "uint256"
        }
      ],
      "name": "proposals",
      "outputs": [
        {
          "name": "",
          "type": "uint256"
        }
      ],
      "payable": false,
      "stateMutability": "view",
      "type": "function"
    },
    {
      "constant": true,
      "inputs": [],
      "name": "dotTokenContract",
      "outputs": [
        {
          "name": "",
          "type": "address"
        }
      ],
      "payable": false,
      "stateMutability": "view",
      "type": "function"
    },
    {
      "constant": true,
      "inputs": [
        {
          "name": "",
          "type": "address"
        }
      ],
      "name": "voters",
      "outputs": [
        {
          "name": "voted",
          "type": "bool"
        },
        {
          "name": "vote",
          "type": "uint8"
        }
      ],
      "payable": false,
      "stateMutability": "view",
      "type": "function"
    },
    {
      "inputs": [
        {
          "name": "dotTokenAddr",
          "type": "address"
        }
      ],
      "payable": false,
      "stateMutability": "nonpayable",
      "type": "constructor"
    },
    {
      "constant": false,
      "inputs": [
        {
          "name": "toProposal",
          "type": "uint8"
        },
        {
          "name": "weight",
          "type": "uint8"
        }
      ],
      "name": "vote",
      "outputs": [],
      "payable": false,
      "stateMutability": "nonpayable",
      "type": "function"
    },
    {
      "constant": true,
      "inputs": [],
      "name": "winningProposal",
      "outputs": [
        {
          "name": "_winningProposal",
          "type": "uint8"
        }
      ],
      "payable": false,
      "stateMutability": "view",
      "type": "function"
    },
    {
      "constant": true,
      "inputs": [],
      "name": "getProposals",
      "outputs": [
        {
          "name": "",
          "type": "uint256[16]"
        }
      ],
      "payable": false,
      "stateMutability": "view",
      "type": "function"
    }
  ],
  "bytecode": "0x608060405234801561001057600080fd5b5060405160208061062783398101806040528101908080519060200190929190505050806000806101000a81548173ffffffffffffffffffffffffffffffffffffffff021916908373ffffffffffffffffffffffffffffffffffffffff160217905550506105a4806100836000396000f300608060405260043610610078576000357c0100000000000000000000000000000000000000000000000000000000900463ffffffff168063013cf08b1461007d578063609ff1bd146100be57806362564c48146100ef5780638eafd14214610142578063a3ec138d14610199578063df49c4de14610201575b600080fd5b34801561008957600080fd5b506100a86004803603810190808035906020019092919050505061023e565b6040518082815260200191505060405180910390f35b3480156100ca57600080fd5b506100d3610258565b604051808260ff1660ff16815260200191505060405180910390f35b3480156100fb57600080fd5b506101046102b8565b6040518082601060200280838360005b8381101561012f578082015181840152602081019050610114565b5050505090500191505060405180910390f35b34801561014e57600080fd5b50610157610303565b604051808273ffffffffffffffffffffffffffffffffffffffff1673ffffffffffffffffffffffffffffffffffffffff16815260200191505060405180910390f35b3480156101a557600080fd5b506101da600480360381019080803573ffffffffffffffffffffffffffffffffffffffff169060200190929190505050610328565b60405180831515151581526020018260ff1660ff1681526020019250505060405180910390f35b34801561020d57600080fd5b5061023c600480360381019080803560ff169060200190929190803560ff169060200190929190505050610366565b005b60028160108110151561024d57fe5b016000915090505481565b6000806000809150600090505b60108160ff1610156102b3578160028260ff1660108110151561028457fe5b015411156102a65760028160ff1660108110151561029e57fe5b015491508092505b8080600101915050610265565b505090565b6102c0610554565b60026010806020026040519081016040528092919082601080156102f9576020028201915b8154815260200190600101908083116102e5575b5050505050905090565b6000809054906101000a900473ffffffffffffffffffffffffffffffffffffffff1681565b60016020528060005260406000206000915090508060000160009054906101000a900460ff16908060000160019054906101000a900460ff16905082565b600080600060101415151561037a57600080fd5b600160003373ffffffffffffffffffffffffffffffffffffffff1673ffffffffffffffffffffffffffffffffffffffff16815260200190815260200160002091508160000160009054906101000a900460ff16806103dc575060108460ff1610155b156103e65761054e565b6000809054906101000a900473ffffffffffffffffffffffffffffffffffffffff1673ffffffffffffffffffffffffffffffffffffffff166370a08231336040518263ffffffff167c0100000000000000000000000000000000000000000000000000000000028152600401808273ffffffffffffffffffffffffffffffffffffffff1673ffffffffffffffffffffffffffffffffffffffff168152602001915050602060405180830381600087803b1580156104a257600080fd5b505af11580156104b6573d6000803e3d6000fd5b505050506040513d60208110156104cc57600080fd5b81019080805190602001909291905050509050808360ff1610156104ef5761054e565b60018260000160006101000a81548160ff021916908315150217905550838260000160016101000a81548160ff021916908360ff1602179055508260ff1660028560ff1660108110151561053f57fe5b01600082825401925050819055505b50505050565b610200604051908101604052806010906020820280388339808201915050905050905600a165627a7a723058204667291f28ec52bfdfdb0f335c2557c25e40b26ca395669b7d2771605002b6b70029",
  "source": "pragma solidity ^0.4.24;\n\nimport \"./DotToken.sol\";\n\n\ncontract VoteProposal {\n\n    DotToken public dotTokenContract;\n\n    struct Voter {\n        bool voted;\n        uint8 vote;\n    }\n\n    //address chairperson;\n    mapping(address => Voter) public voters;\n    uint256[16] public proposals;\n\n\n    /// Create a new ballot with $(_numProposals) different proposals.\n    constructor(address dotTokenAddr) public {\n        dotTokenContract = DotToken(dotTokenAddr);\n    }\n\n    /// Give a single vote to proposal $(toProposal).\n    function vote(uint8 toProposal, uint8 weight) public {\n        // There is no proposal to vote.\n        require(proposals.length != 0);\n        \n        Voter storage sender = voters[msg.sender];\n        if (sender.voted || toProposal >= proposals.length) return;\n        \n        uint balance = dotTokenContract.balanceOf(msg.sender);\n        //No right to vote if voter has no balance.\n        if (weight < balance) return;\n        \n        sender.voted = true;\n        sender.vote = toProposal;\n        proposals[toProposal] += weight;\n    }\n\n    function winningProposal() public constant returns (uint8 _winningProposal) {\n        uint256 winningVoteCount = 0;\n        for (uint8 prop = 0; prop < proposals.length; prop++)\n            if (proposals[prop] > winningVoteCount) {\n                winningVoteCount = proposals[prop];\n                _winningProposal = prop;\n            }\n    }\n\n    function getProposals() public constant returns (uint256[16]) {\n        return proposals;\n    }\n}",
  "sourcePath": "/Users/jiangsharu/Projects/voting/app/contracts/VoteProposal.sol",
  "compiler": {
    "name": "solc",
    "version": "0.4.24+commit.e67f0147.Emscripten.clang"
  },
  "schemaVersion": "2.0.1",
  "updatedAt": "2018-10-28T05:10:14.302Z"
}